:100000007400F58074FFF590E590B4010F020010C4
:0F001000E5908590F025F0F580020008B4020F0E
:0F001F00020022E5908590F095F0F58002000830
:0E002E00B4030E020034E5908590F0A4F58036
:0F003C00020008B4040E020045E5908590F084A0
:10004B00F580020008B4050F020056E5908590F08C
:0F005B0045F0F580020008B40610020068E59039
:0E006A008590F0F445F0F580020008B4070F11
:0F00780002007BE5908590F055F0F580020008BE
:0F008700B4080F02008DE5908590F065F0F580CC
:0E009600020008B40908E590F4F580020008A5
:0300A4000200084F
:00000001FF
